:0A1297003F065B4F666D7D077F6F19
:10124700021B303002090000020B0000020D0000F3
:0C125700011E0C011F00011D0001080019
:04127A007F647E000F
:0B127E00EF1FAC0670011E4C70F62242
:040800008E228F2392
:10080400E52364014522703CFDED14601414601E60
:1008140024027025C2A2C2A3C2A4C2A575807C8092
:1008240018D2A2C2A3C2A4C2A5758077800BC2A2AB
:10083400D2A3C2A4C2A575805E12127AE4F5800D1B
:10084400BD03C622E52345226003020ACCAE09AFEC
:100854000AFC7D0A120E628D17C3E50A9517FFE59F
:10086400099400FE7C007D0A120E627C007D0A124F
:100874000E628D14E51475F00AA4FFC3E50A9FFF08
:10088400E50995F0FEC3EF9517FFEE9400FE7C009A
:100894007D64120E627C007D0A120E628D11E511D8
:1008A40075F064A4FFC3E50A9FFDE50995F0FCE536
:1008B4001475F00AA4FFC3ED9FFFEC95F0FEC3EF9F
:1008C4009517FFEE9400FE7C037DE8120E627C0017
:1008D4007D0A120E628D0FAE0BAF0C7C007D0A12E6
:1008E4000E628D19C3E50C9519FFE50B9400FE7C8F
:1008F400007D0A120E627C007D0A120E628D16E5DE
:100904001675F00AA4FFC3E50C9FFFE50B95F0FEF6
:10091400C3EF9519FFEE9400FE7C007D64120E6215
:100924007C007D0A120E628D13E51375F064A4FF3A
:10093400C3E50C9FFDE50B95F0FCE51675F00AA4E4
:10094400FFC3ED9FFFEC95F0FEC3EF9519FFEE9406
:1009540000FE7C037DE8120E627C007D0A120E62AA
:100964008D10AE0DAF0E7C007D0A120E628D1AC37F
:10097400E50E951AFFE50D9400FE7C007D0A120E2B
:10098400627C007D0A120E628D18E51875F00AA4C7
:10099400FFC3E50E9FFFE50D95F0FEC3EF951AFF2B
:1009A400EE9400FE7C007D64120E627C007D0A12CF
:1009B4000E628D15E51575F064A4FFC3E50E9FFD69
:1009C400E50D95F0FCE51875F00AA4FFC3ED9FFF53
:1009D400EC95F0FEC3EF951AFFEE9400FE7C037DC8
:1009E400E8120E627C007D0A120E628D12E4FDEDA7
:1009F400B40C004003020ABC900A03F828287302CE
:100A04000A27020A34020A40020A4C020A58020A5D
:100A140064020A70020A7C020A88020A94020AA08A
:100A2400020AACC2A2C2A3C2A4C2A5E50F020AB6BE
:100A3400D2A2C2A3C2A4C2A5E5118076C2A2D2A347
:100A4400C2A4C2A5E514806AD2A2D2A3C2A4C2A53C
:100A5400E517805EC2A2C2A3D2A4C2A5E51080524B
:100A6400D2A2C2A3D2A4C2A5E5138046C2A2D2A335
:100A7400D2A4C2A5E516803AD2A2D2A3D2A4C2A51A
:100A8400E519802EC2A2C2A3C2A4D2A5E512802277
:100A9400D2A2C2A3C2A4D2A5E5158016C2A2D2A333
:100AA400C2A4D2A5E518800AD2A2D2A3C2A4D2A518
:100AB400E51A90129793F58012127AE4F5800DED01
:100AC400640860030209F322E523640245226003FB
:100AD400020BB6FDEDB40C004003020BA7900AE82C
:100AE400F8282873020B0C020B18020B24020B2C9F
:100AF400020B38020B44020B51020B61020B73020E
:100B04000B7F020B8B020B97C2A2C2A3C2A4C2A585
:100B1400E51E8043D2A2C2A3C2A4C2A5E51E80479B
:100B2400C2A2D2A3C2A4801ED2A2D2A3C2A4C2A52E
:100B3400E51F8023C2A2C2A3D2A4C2A5E51F8027B9
:100B4400D2A2C2A3D2A4C2A57580408056C2A2D2AA
:100B5400A3D2A4C2A5E51D75F00A848040D2A2D216
:100B6400A3D2A4C2A5E51D75F00A84E5F0802EC2C7
:100B7400A2C2A3C2A4D2A5E5128022D2A2C2A3C259
:100B8400A4D2A5E5158016C2A2D2A3C2A4D2A5E51B
:100B940018800AD2A2D2A3C2A4D2A5E51A901297B1
:100BA40093F58012127AE4F5800DED640860030277
:020BB4000AD85D
:010BB600221C
:10126400759850758920758780758DF4758BF4D2C7
:06127400ACD2AFD28E22C5
:0E128900758921758C3C758AB0D2A9D28C2251
:041049008E268F2739
:10104D00752800752902AC26AD27E4120C35120F58
:10105D00A3C004C005C006C007AC28AD29E4120C1E
:10106D0035A804A905AA06AB07D007D006D005D030
:10107D0004120BB760025019AC28AD29AE26AF276C
:10108D00120E62ED4C600A0529E52970B90528801C
:10109D00B5AC26AD27E4120C35120FA3C004C00564
:1010AD00C006C007AC28AD29E4120C35A804A9056B
:1010BD00AA06AB07D007D006D005D004120BB76037
:0B10CD00025004E4FEFF227E007F01C1
:0110D80022F5
:0411CA008E228F23BF
:1011CE00752400752503E522C313FEE52313FFD313
:1011DE00E5259FE5249E502BAF25AE24121049EF36
:1011EE0064014E7014C3E5239525FFE5229524FE78
:1011FE00121049EF64014E600A0525E52570C705FA
:07120E002480C3AE24AF25CC
:0112150022B6
:100EC50075A0FF121264E51BB45425E51CB44D2032
:100ED500121289E4F520F5217F027E001208000533
:100EE50021E52170020520C3943CE520940040E8EB
:100EF500E51B64477051E51C644F704BE50A30E013
:100F0500097F017E00120800803DC37405950AE43F
:100F150095097E0050047F0180027F00C3EF941085
:100F2500EE648094A75020AF0AAE091211CA8E0B49
:100F35008F0CC3E50A950CF50EE509950BF50DE447
:100F4500FFFE12080080F8E51B64536003020ECB18
:100F5500E51C64546003020ECBAF0AAE091211CA38
:100F65008E0B8F0CC3E50A950CF50EE509950BF56F
:100F75000DE4F520F521E4FFFE1208000521E52129
:100F850070020520C39496E520940040E97402257B
:0A0F95000AF50AE43509F50980BFEA
:0300230002116562
:10116500C0E0C0F0C0D075D000C000C004C005C04C
:0311750006C007AA
:10117800AF99C2988F993099FDC299E51BB4300593
:1011880085991B802CE51CB4300585991C8022E5C7
:101198001C6430601CAE09AF0A7C007D0A120E5038
:1011A800AD99EF2DFFEC3ECF24D0F50AEF34FFF5D3
:0111B800092D
:1011B900D007D006D005D004D000D0D0D0F0D0E0F0
:0111C90032F3
:03001300021216C0
:04121600C0E0C0D0A4
:10121A000508E508B40C05051D750800E51DB43C74
:10122A0005051F751D00E51FB43C05051E751F0049
:08123A00E51EB41803751E0047
:05124200D0D0D0E03225
:100BB70074F8CC6480CCC86480C8F58204604FC3E5
:100BC700EB9FF5F0EA9E42F0E99D42F0E89C45F084
:100BD700603C501DE5825FFFE582D313CB5BCBF40E
:100BE7002B5582FB50280ABA002409B90020088037
:100BF7001DE5825BFBE582D313CF5FCFF4C3132FD1
:100C07005582FF50090EBE00050DBD00010CC3EB58
:100C17009FF5F0EA9E42F0E99D42F0E89C45F060BE
:090C270007CC4820E701B3EC22E0
:100C300075F020800E75F010800575F0087D007E3F
:100C4000007F003392D530D503120EB7EC3340103D
:100C5000EF33FFEE33FEED33FDEC33FCD5F0ED2248
:0E0C6000E5F0247EA2D513CC92E7CDCEFF2284
:100F9F00020CA322EDA2E7D2E7F9EC3340F260F3A3
:100FAF00B4FF08ED547F70E8020CADF82481C2E065
:100FBF00C0E0F40428FAC313FCED92E7FD8C2A8DF0
:100FCF002B8E2C8F2DEEA2E7E9BA7F02C3133400CC
:100FDF009400FA75F091A4E5F013F494FE8AF0A44E
:100FEF0033E5F033248CD313FDE492E7FE7F007CCE
:100FFF003F758302ECC0E0F8EDC0E0F9EEC0E0FA17
:10100F00EFC0E0FBAC2AAD2BAE2CAF2D120DB3D041
:10101F00E0FBD0E0FAD0E0F9D0E0F8120CBFED64BD
:10102F0080FD30E7011CD583CBED33CC33F8D0E016
:0A103F00A2E71328C313CC13FD220F
:100C6E00E9D2E7C933E833F892D5EDD2E7CD33ECCC
:070C7E0033FC5002B2D52245
:100C8500EC30E7100FBF000C0EBE00080DBD0004D0
:100C95000BEB6014A2D5EB13FCED92E7FD2274FF7C
:100CA500FCFDFEFF22E480F8A2D574FF13FC7D80D5
:030CB500E480EFE9
:100CB800020CA3E86480F8E933E83360110460F0BB
:100CC800ED33EC337009E8FCE9FDEAFEEBFF2204A2
:100CD80060DED3EB9FEA9EE99DE8C2E78CF0C2F79D
:100CE80095F0400CE8CCF8E9CDF9EACEFAEBCFFB69
:100CF800120C6E85D0F05804700320D5B3E8047048
:100D0800075002B2D5020CAD92D5EC0460F7E4CCE2
:100D1800C0E0C398F8603B94186008400DD0E0FB31
:100D2800020C85E4FBFAC9FC8028E830E406E4C933
:100D3800FBE4CAFCE830E305E4C9CACBFCE8540785
:100D48006010F8C3E913F9EA13FAEB13FBEC13FC90
:100D5800D8F130F52FC3E49CFCEF9BFFEE9AFEED33
:100D680099FDD0E0FBEF4E4D4C701222DB03020CD4
:100D7800AAEC2CFCEF33FFEE33FEED33FDED30E74C
:100D8800EB020C85EF2BFFEE3AFEED39FDD0E0FBD0
:100D980050130BBB0003020CADED13FDEE13FEEF79
:080DA80013FFEC13FC020C85A3
:100DB000020CADEC5D046005E859047003020CA35D
:100DC000120C6E580460F6EC4860F2EC7004FDFE04
:100DD000FF22C860DB2481C85009C3986002500616
:100DE000020CAA9850CAF582E9294B4A7005AB82D9
:100DF000020C9975F0007C1A7880C3EF9BEE9AED97
:100E000099400DC3EF9BFFEE9AFEED99FDE842F08D
:100E1000DC23ACF0D0E0FFD0E0FED0E0FDAB8220E0
:100E2000E7101BEB60BAEC2CFCEF33FFEE33FEED6A
:100E300033FD020C85E803F830E705C0F075F000DB
:100E4000EF2FFFEE33FEED33FD40B830E7C280AA4E
:030000000210D912
:0C10D900787FE4F6D8FD75812D0211200F
:100E5000EF8DF0A4A8F0CF8CF0A428CE8DF0A42EB6
:020E6000FE2270
:100E6200BC000BBE0029EF8DF084FFADF022E4CC74
:100E7200F875F008EF2FFFEE33FEEC33FCEE9DEC3D
:100E8200984005FCEE9DFE0FD5F0E9E4CEFD22ED83
:100E9200F8F5F0EE8420D21CFEADF075F008EF2FCD
:100EA200FFED33FD4007985006D5F0F222C398FDBE
:050EB2000FD5F0EA225B
:0E0EB700C3E49FFFE49EFEE49DFDE49CFC224C
:1010E500020EC5E493A3F8E493A34003F68001F24E
:1010F50008DFF48029E493A3F85407240CC8C3330C
:10110500C4540F4420C8834004F456800146F6DFDA
:10111500E4800B0102040810204080901247E47E11
:10112500019360BCA3FF543F30E509541FFEE493CF
:10113500A360010ECF54C025E060A840B8E493A396
:10114500FAE493A3F8E493A3C8C582C8CAC583CAC1
:10115500F0A3C8C582C8CAC583CADFE9DEE780BE79
:01126300008A
:00000001FF
