:0A1078003F065B4F666D7D077F6F3A
:0E105E000212000002080008040E000000004C
:0B106D00EF1FAC0670011E4C70F62255
:100AFC00EF64014E7040FDED14601414601E24026E
:100B0C007025C2A2C2A3C2A4C2A575807C8018D2D3
:100B1C00A2C2A3C2A4C2A5758077800BC2A2D2A325
:100B2C00C2A4C2A575805E7F647E0012106DE4F5D0
:060B3C00800DBD03C22282
:100B4200AE08AF097C007D0A120A998D17C3E50928
:100B52009517FFE5089400FE7C007D0A120A997C35
:100B6200007D0A120A998D16E51675F00AA4FFC3D4
:100B7200E5099FFFE50895F0FEC3EF9517FFEE9498
:100B820000FE7C007D64120A997C007D0A120A999B
:100B92008D15E51575F064A4FFC3E5099FFDE50811
:100BA20095F0FCE51675F00AA4FFC3ED9FFFEC95E6
:100BB200F0FEC3EF9517FFEE9400FE7C037DE81272
:100BC2000A997C007D0A120A998D14AE0AAF0B7C39
:100BD200007D0A120A998D1BC3E50B951BFFE50ADE
:100BE2009400FE7C007D0A120A997C007D0A120A9A
:100BF200998D1AE51A75F00AA4FFC3E50B9FFFE56C
:100C02000A95F0FEC3EF951BFFEE9400FE7C007D7B
:100C120064120A997C007D0A120A998D19E51975E8
:100C2200F064A4FFC3E50B9FFDE50A95F0FCE51A0D
:100C320075F00AA4FFC3ED9FFFEC95F0FEC3EF959C
:100C42001BFFEE9400FE7C037DE8120A997C007D76
:100C52000A120A998D18AE0CAF0D7C007D0A120A99
:100C6200998D1FC3E50D951FFFE50C9400FE7C00D6
:100C72007D0A120A997C007D0A120A998D1EE51ED0
:100C820075F00AA4FFC3E50D9FFFE50C95F0FEC3C6
:100C9200EF951FFFEE9400FE7C007D64120A997CA2
:100CA200007D0A120A998D1DE51D75F064A4FFC32B
:100CB200E50D9FFDE50C95F0FCE51E75F00AA4FF1D
:100CC200C3ED9FFFEC95F0FEC3EF951FFFEE94007E
:100CD200FE7C037DE8120A997C007D0A120A998D36
:100CE2001CE4FDEDB40C004003020DAE900CF5F8CF
:100CF200282873020D19020D26020D32020D3E0242
:100D02000D4A020D56020D62020D6E020D7A020D9F
:100D120086020D92020D9EC2A2C2A3C2A4C2A5E582
:100D220014020DA8D2A2C2A3C2A4C2A5E515807660
:100D3200C2A2D2A3C2A4C2A5E516806AD2A2D2A33D
:100D4200C2A4C2A5E517805EC2A2C2A3D2A4C2A554
:100D5200E5188052D2A2C2A3D2A4C2A5E519804648
:100D6200C2A2D2A3D2A4C2A5E51A803AD2A2D2A329
:100D7200D2A4C2A5E51B802EC2A2C2A3C2A4D2A540
:100D8200E51C8022D2A2C2A3C2A4D2A5E51D801670
:100D9200C2A2D2A3C2A4D2A5E51E800AD2A2D2A325
:100DA200C2A4D2A5E51F90107893F5807F647E00DF
:0F0DB20012106DE4F5800DED640C6003020CE58A
:010DC100220F
:10104800759850758920758780758DF4758BF4D2E5
:06105800ACD2AFD28E22E3
:040E6C008E188F1934
:100E7000751A00751B02AC18AD19E412087E120D2C
:100E8000C6C004C005C006C007AC1AAD1BE41208FA
:100E90007EA804A905AA06AB07D007D006D005D0C6
:100EA0000412080060025019AC1AAD1BAE18AF193D
:100EB000120A99ED4C600A051BE51B70B9051A80F2
:100EC000B5AC18AD19E412087E120DC6C004C005F9
:100ED000C006C007AC1AAD1BE412087EA804A90521
:100EE000AA06AB07D007D006D005D00412080060D0
:0B0EF000025004E4FEFF227E007F01A0
:010EFB0022D4
:040FDF008E148F15C8
:100FE300751600751703E514C313FEE51513FFD338
:100FF300E5179FE5169E502BAF17AE16120E6CEF3A
:1010030064014E7014C3E5159517FFE5149516FE9C
:10101300120E6CEF64014E600A0517E51770C705E1
:071023001680C3AE16AF17E3
:01102A0022A3
:100F880075A0FF121048E50930E0097F017E0012C4
:100F98000AFC80F2AF09AE08120FDF8E0A8F0BC36E
:100FA800E509950BF50DE508950AF50CE4FBFAE45F
:100FB800FFFE120AFC0BBB00010AEB643C4A70EF0F
:100FC800E512B453C1E513B454BC74022509F509FC
:070FD800E43508F50880AFC5
:0300230002102B9D
:07102B00C0D075D000C00722
:10103200751253751354AF99C2988F993099FDC2A6
:011042009914
:05104300D007D0D032FF
:1008000074F8CC6480CCC86480C8F58204604FC39F
:10081000EB9FF5F0EA9E42F0E99D42F0E89C45F03E
:10082000603C501DE5825FFFE582D313CB5BCBF4C8
:100830002B5582FB50280ABA002409B900200880F1
:100840001DE5825BFBE582D313CF5FCFF4C3132F8B
:100850005582FF50090EBE00050DBD00010CC3EB13
:100860009FF5F0EA9E42F0E99D42F0E89C45F06079
:0908700007CC4820E701B3EC229B
:1008790075F020800E75F010800575F0087D007EFA
:10088900007F003392D530D503120AEEEC334010C5
:10089900EF33FFEE33FEED33FDEC33FCD5F0ED2203
:0E08A900E5F0247EA2D513CC92E7CDCEFF223F
:100DC2000208EC22EDA2E7D2E7F9EC3340F260F33D
:100DD200B4FF08ED547F70E80208F6F82481C2E0FF
:100DE200C0E0F40428FAC313FCED92E7FD8C1C8DDD
:100DF2001D8E1E8F1FEEA2E7E9BA7F02C3133400D5
:100E02009400FA75F091A4E5F013F494FE8AF0A42C
:100E120033E5F033248CD313FDE492E7FE7F007CAC
:100E22003F758302ECC0E0F8EDC0E0F9EEC0E0FAF5
:100E3200EFC0E0FBAC1CAD1DAE1EAF1F1209FCD013
:100E4200E0FBD0E0FAD0E0F9D0E0F8120908ED6456
:100E520080FD30E7011CD583CBED33CC33F8D0E0F5
:0A0E6200A2E71328C313CC13FD22EE
:1008B700E9D2E7C933E833F892D5EDD2E7CD33EC87
:0708C70033FC5002B2D52200
:1008CE00EC30E7100FBF000C0EBE00080DBD00048B
:1008DE000BEB6014A2D5EB13FCED92E7FD2274FF37
:1008EE00FCFDFEFF22E480F8A2D574FF13FC7D8090
:0308FE00E480EFA4
:100901000208ECE86480F8E933E83360110460F030
:10091100ED33EC337009E8FCE9FDEAFEEBFF22045C
:1009210060DED3EB9FEA9EE99DE8C2E78CF0C2F757
:1009310095F0400CE8CCF8E9CDF9EACEFAEBCFFB23
:100941001208B785D0F05804700320D5B3E80470BD
:10095100075002B2D50208F692D5EC0460F7E4CC58
:10096100C0E0C398F8603B94186008400DD0E0FBEC
:100971000208CEE4FBFAC9FC8028E830E406E4C9A9
:10098100FBE4CAFCE830E305E4C9CACBFCE8540740
:100991006010F8C3E913F9EA13FAEB13FBEC13FC4B
:1009A100D8F130F52FC3E49CFCEF9BFFEE9AFEEDEE
:1009B10099FDD0E0FBEF4E4D4C701222DB03020893
:1009C100F3EC2CFCEF33FFEE33FEED33FDED30E7BE
:1009D100EB0208CEEF2BFFEE3AFEED39FDD0E0FB46
:1009E10050130BBB00030208F6ED13FDEE13FEEFEF
:0809F10013FFEC13FC0208CE19
:1009F9000208F6EC5D046005E8590470030208EC8E
:100A09001208B7580460F6EC4860F2EC7004FDFE79
:100A1900FF22C860DB2481C85009C39860025006D0
:100A29000208F39850CAF582E9294B4A7005AB824E
:100A39000208E275F0007C1A7880C3EF9BEE9AED0C
:100A490099400DC3EF9BFFEE9AFEED99FDE842F048
:100A5900DC23ACF0D0E0FFD0E0FED0E0FDAB82209B
:100A6900E7101BEB60BAEC2CFCEF33FFEE33FEED25
:100A790033FD0208CEE803F830E705C0F075F00051
:100A8900EF2FFFEE33FEED33FD40B830E7C280AA09
:03000000020EFCF1
:0C0EFC00787FE4F6D8FD75811F020F43DB
:100A9900BC000BBE0029EF8DF084FFADF022E4CC41
:100AA900F875F008EF2FFFEE33FEEC33FCEE9DEC0A
:100AB900984005FCEE9DFE0FD5F0E9E4CEFD22ED50
:100AC900F8F5F0EE8420D21CFEADF075F008EF2F9A
:100AD900FFED33FD4007985006D5F0F222C398FD8B
:050AE9000FD5F0EA2228
:0E0AEE00C3E49FFFE49EFEE49DFDE49CFC2219
:100F0800020F88E493A3F8E493A34003F68001F268
:100F180008DFF48029E493A3F85407240CC8C333EA
:100F2800C4540F4420C8834004F456800146F6DFB9
:100F3800E4800B010204081020408090105EE47EDB
:100F4800019360BCA3FF543F30E509541FFEE493AE
:100F5800A360010ECF54C025E060A840B8E493A375
:100F6800FAE493A3F8E493A3C8C582C8CAC583CAA0
:100F7800F0A3C8C582C8CAC583CADFE9DEE780BE58
:01106C000083
:00000001FF
